:1000000000400020450B0000850B0000870B00001E
:1000100000000000000000000000000000000000E0
:10002000000000000000000000000000890B00003C
:1000300000000000000000008B0B00008D0B000092
:1000400059060000A12B00008F0B00008F0B000051
:100050008F0B000000000000B50800008F0B0000AF
:100060008F0B00008F0B00002D3B00008F0B00005A
:100070008F0B00008F0B00008F0B00008F0B000018
:100080008F0B0000010800008F0B00008F0B000099
:10009000F92E00008F0B00008F0B00008F0B00006B
:1000A0008F0B00008F0B000000000000000000001C
:1000B0000000000000000000000000000000000040
:1000C00010B5064C2378002B07D1054B002B02D02E
:1000D000044800E000BF0123237010BD9000002001
:1000E00000000000643D0000044B10B5002B03D05D
:1000F0000349044800E000BF10BDC04600000000F6
:1001000094000020643D0000402292029A1A924618
:100110007047C046154B002B00D1114B9D46FFF791
:10012000F3FF00218B460F461148124A121A00F0C5
:1001300079F80C4B002B00D098470B4B002B00D0CC
:1001400098470020002104000D000B4800F016F82D
:1001500000F046F82000290000F0DCFD00F016F861
:100160000000080000000000000000000040002027
:1001700090000020FC050020B901000010B501002E
:1001800000230022002000F0A1F810BD084B10B59C
:100190000400002B02D0002100F018F9054B18686C
:1001A000836A002B00D09847200000F08DF9C046EC
:1001B000CD030000FC3C000070B5074D074C641BEC
:1001C000A41005D0013CA300EB589847002CF9D1AE
:1001D00003F08EFD70BDC0468C0000209000002012
:1001E00070B50C4D0C4E761BB61005D0002408CD12
:1001F00001349847A642FAD103F074FD074D084E2A
:10020000761BB61005D0002408CD01349847A642CD
:10021000FAD170BD880000208800002088000020EE
:100220008C000020F0B5050083074AD0541E002A38
:1002300044D0CEB20300032202E00135013C3DD39D
:1002400001332E701342F8D1032C2FD9FF220A401C
:10025000150215432A0415430F2C35D92700103FEA
:100260003F093E01B4461E001A0010366644156070
:1002700055609560D5601032B242F8D10F260C223D
:1002800001373F012640DB193700224217D03E1FBD
:10029000B608B400A4461A001C1D644420C2A24241
:1002A000FCD103240136B6009B193C40002C05D03C
:1002B000C9B21C19197001339C42FBD1F0BD340046
:1002C000F4E714000300BFE72700E0E7F0B5DE46DF
:1002D0004E4645465746E0B5374D83B00600286880
:1002E00098468B46914600F0E5F8344B1C68002C8C
:1002F00036D063681F2B59DC002E20D08822A058EE
:100300009246002837D078328258944649469A005F
:10031000821811600121674699400F43BC4680272F
:100320008A4661467F00C151802147465750022EC0
:1003300005D182225646520081580E4386505A1CDF
:1003400062605A4602339B0028681A5100F0BAF8DE
:10035000002003B0F0BCBB46B246A946A046F0BDA3
:10036000174C1C60174B002BC3D01B6801938823CC
:10037000019AE250BDE7144B002B11D084204000BD
:1003800000E000BF00280BD08022002352008350E1
:100390000432835053460022E05094466368B5E728
:1003A000286800F08DF801204042D2E7286800F06C
:1003B00089F801204042CCE7640000203801002089
:1003C000AC0000200000000000000000F0B5DE4698
:1003D0004E4645465746E0B52F4B83B01B6801900B
:1003E00018000093884600F065F82C4B9B461E6869
:1003F000002E45D088237568F7586C1E40D401350F
:10040000AD00783375199A460AE0002F05D03B00FD
:10041000A20080339B58434505D0043D013C2FD3B7
:100420004346002BF1D173682A68013BA34222D0D6
:1004300000232B60002AF0D073689946002F18D053
:1004400001235146A3407958194212D0822040001E
:100450003858A1007958009018420ED10198904761
:100460005B4672681B684A4501D1B342D5D01E0075
:10047000BEE79047F4E77460DCE708009047EFE7D9
:10048000054B186800F01EF803B0F0BCBB46B2463E
:10049000A946A046F0BDC0466400002038010020F7
:1004A0007047C0467047C0467047C0467047C04658
:1004B0007047C0467047C046012070470120704712
:1004C0007047C0467047C046FEE7C04670B52B4A2D
:1004D0001368DBB2012B03D129490B681B0700D03D
:1004E00070BD284BF0201C68E026250005403442F2
:1004F0003DD1254C246804420DD12448244C04608D
:1005000080242448240204601068C0B20128E7D186
:1005100008680007E4D1F02418682040402810D172
:100520001948006820420CD18024C1200125E4052F
:10053000C00025501268D2B2AA42D1D10A6812076F
:10054000CED1F0221B681340A02B13D10E4B1B6899
:100550001342C5D1104B1A68012A04D00F4A1A6001
:100560001A68012AFCD1C0220D4B1A60B8E7302D61
:10057000BFD0D0E7D02BB3D1E8E7C046E00F00F002
:10058000E40F00F0E80F00F0EC0F00F0040500406D
:10059000DFFF07C0186C004000EC064075930000B8
:1005A00014EC064070B504000D002368002B05D044
:1005B0001A68280022605B689847F6E770BD000063
:1005C00070B50C4D85202C7A002C12D18023AA22E4
:1005D000FF210126DB05D2006C602C602C61EC60F1
:1005E0009950383A20009E50FC3900F07BF82000EA
:1005F0002E7270BD3C01002070B50400002000F098
:1006000069F8124DAB7A002B0BD0002C02D00120E0
:1006100063689847EB6800200133EB6000F05EF8F8
:1006200070BD002C02D02B6923602C61EB68002B7D
:10063000F0D1074A02211360C123053AFF3A9B001B
:10064000D1500122034B1A60E4E7C0463C01002070
:10065000040100400800004010B5124B1A68002A3F
:100660000CD000218020C22219600123C005920015
:1006700083500D4843720430FFF794FF0B4B1A6808
:10068000002A0DD000221A608022C22302210648CF
:10069000D2059B00D150013981721030FFF782FFE3
:1006A00010BDC046000100403C0100200401004094
:1006B00072B6024A1368013313607047500100207C
:1006C000034A1368013B1360002B00D162B67047E8
:1006D0005001002010B5FFF7EBFF10BD10B5FFF77C
:1006E000EFFF10BD30B5FF2503232C000340DB00D6
:1006F0009C4089012940E4439940C2B2002814DAA1
:100700000F231340083B0E489B089B001B18D86919
:1007100004402143D9611F231A40C0211E3B93404E
:10072000084A49005350136030BDC025054B80086E
:100730008000C018AD0043591C4021434151EAE7F5
:1007400000ED00E000E100E0F7B505000C00072037
:10075000002A25D06B79134998004250002C03D110
:1007600006215943104C6418032673430F4F082089
:10077000DB5D0193002B13D10420A1782856FFF7ED
:10078000B1FFA12322882968DB00CA506B79227946
:100790005E43BB195A70E27801989A700123F355B1
:1007A000FEBDC04658010020003D0000540100205D
:1007B0000122036802211A60032342795343014A4C
:1007C0009954704754010020012203685A600323A2
:1007D00041794B4301495A547047C04654010020A7
:1007E0000022036810B5FC335A60D122012304684B
:1007F0009200A350002902D00168403A8B5010BDEE
:10080000F8B58026D22700247602BF00C1231C4DF4
:100810009B00EB581E420FD01A4AA3009B181A687F
:10082000002A09D0C2229200EE51AE5000221A6076
:10083000154BE0B21B68984701347600042CE5D1D3
:10084000C1239B00EB58DB0709D5104B5A68002ADF
:1008500005D000225A600C4B20001B689847C1232A
:100860009B00EB589B0709D5084B9A68002A05D0D6
:1008700000229A60044B05201B689847F8BDC046CB
:10088000001001404011014058010020FC100140BF
:10089000A0238000DB05C018E02310B5DB00C258A0
:1008A000034C09042240C250C2581143C15010BD2C
:1008B000FFFFFCFFF0B50024C125012226004D4BAF
:1008C0004D484E4985B0AD001F68012F04D14759EE
:1008D0003A4201D01E601443043352008B42F3D1DC
:1008E0000022474B00921A68012A0AD100221A609E
:1008F00080231B06A0221C43A223D205DB00D35871
:100900000093230716D0A22701260025FF002642C8
:100910000CD0394AAB009A18D059D1590322090C8E
:100920001140384AC0049B58C00E984701357600E4
:10093000042DECD1002C5BDA01235B4203930023EE
:10094000019300252F002F4B1A004032D457621C10
:1009500041D0E4B2C02226009643039A0121F2401E
:100960000A4238D09A195218D27FA40952B2920082
:10097000D3580293002B01D1032C2CD10122B24079
:10098000032C02D1019B134301933300A021C133F7
:10099000FF33C9059B005B5800999B039B0F0A42DC
:1009A0000ED0022B17D1032C0FD1210030000135BE
:1009B000FFF76EFFEDB208E0019A00930392C0E7E3
:1009C000032B08D10221032CF0D0029B002B02D074
:1009D0002100300098470137042FB4D1002D07D0F3
:1009E000A022A223D205DB00D358009A9A42E3D179
:1009F00005B0F0BD006100400060004010610040A3
:100A00007C6100405C01002002210B4B0B4A10B5B9
:100A100099508021C9005C58002CFCD0A124E4002E
:100A2000185158580028FCD0002199508021C90045
:100A30005A58002AFCD010BD00E001400405000017
:100A400070B504000D000E4B1B78002B14D1012152
:100A50000C4B0D4A99508021C90058580028FCD0F1
:100A6000256058580028FCD0002199508021C900E9
:100A70005A58002AFCD070BD00F021F8E3E7C046C8
:100A8000A401002000E001400405000070B504004E
:100A90000E0095004519AC4201D1002070BD200028
:100AA00002CEFFF7CDFF0434F5E7802310B55B05D8
:100AB0001B699BB25843FFF7A7FF002010BD20BF62
:100AC000002070470022194B013870B51A600128C8
:100AD0001CD80B78FF2B02D14A78154B1A700B7873
:100AE000FE2B14D1FF25AD022B68124C2360C823C6
:100AF0004A7853436360104B1B68FF20A360FFF7E5
:100B0000D4FF032221002800FFF7C0FF70BDFD2B9A
:100B1000FCD1FF25AD022B68084C2360084B1B68F5
:100B20006360C8234A785343E7E7C046F4010020D6
:100B3000A5010020B001002008FC0300BC0100203A
:100B400004FC030003210A4802680A4302600948C2
:100B500002680A4302600849084A094B9B1A03DDF0
:100B6000043BC858D050FBDCFFF7B0FCFFF7D2FACB
:100B70002405004054050040703D000000000020A6
:100B800090000020FEE7FEE7FEE7FEE7FEE7FEE757
:100B9000F7B5544905226846A024A12703F04EF872
:100BA00007230121504DE405FF000A002868824018
:100BB000E251C046A2226846D200A2580078D60C64
:100BC0000E40400030436E4630707078960C0E40F8
:100BD000400030436E467070B078560C0E404000B6
:100BE00030436E46B070F078960B0E4040003043B4
:100BF0006E46F0703079520B40000A400243080004
:100C0000327104CD013B9040384A9BB2A050002B7A
:100C1000CBD16A46D45C002C5FD10133052BF8D1CF
:100C2000334D2B6801332B60FA232A685B009A420C
:100C30001CD93048FFF7C8FDA022A1230821D20506
:100C4000DB00D1504918D1501031D1502031D15052
:100C50004031D1508131FF31D1508021C900D15074
:100C600080220121D205083B2C60D150002222496C
:100C70006B46985C535C984225D10132052AF7D126
:100C80001E4C236801332360052B04D1002000F0A3
:100C900000F9002323601A4A136801331360194ACC
:100CA000126893420ED1184A11688B420AD0136021
:100CB000164B1B68002B05D000210D4A1160144A09
:100CC00010689847F7BD00230C4A13606A46D25C4F
:100CD000CA540133052BF9D1DDE70022044B1A6019
:100CE000C4E7C046063D00000C3D00000C050000B6
:100CF000F4010020283D0000F8010020F001002050
:100D0000A8010020C801002000020020CC01002022
:100D1000AC01002010B5002000F0C4FB642000F0FE
:100D20006BFB042000F050FB03212A4800F0C4F9BB
:100D3000012000F089FAE120800000F0FEFA264848
:100D400000F00CFA254800F021FA00F07FF8FFF7D8
:100D500037FC0020FFF750FC214C224A00212000E4
:100D6000FFF7F2FC01212000FFF73AFD2000FFF71A
:100D70001FFDA0231C4A1D49DB055A5004395A5057
:100D80001B495A500C395A501A495A5003221A49D1
:100D90005A5004315A5019495A5004315A5018497E
:100DA0005A5018495A5004315A500821164A99503D
:100DB000491899501031995020319950403199502B
:100DC0008131FF3199508021C900995040BF20BF27
:100DD00020BFFBE7680000200403020108070605A6
:100DE000283D0000910B0000040002004C070000A9
:100DF00044070000340700000C070000140700003F
:100E00001C070000240700000C050000202330B55B
:100E1000C9B285B00400039300290AD0064D03AA85
:100E2000290000F079F8039B29002000DAB2FFF7CF
:100E300049FE05B030BDC046D001002082B002B0EE
:100E4000704782B002B070477047000008B5064B8B
:100E50001868002803D1054902220A7002E001F057
:100E600049F9012008BDC0460402002065020020A7
:100E7000014B1868407E70470402002008B500F05E
:100E800011FE002802D100F0F8FD01E0FFF7DCFFC1
:100E900008BDF8B5051C0F1C161C072804D9042230
:100EA0001B4E0020327031E003220029F8D00622C8
:100EB000202EF5D800F04CFE09220228F0D8281C7C
:100EC00000F04AFE0A220228EAD800F049FE082271
:100ED0000128E5D900F0F4FD4378041C06700120D8
:100EE00003436370391C321CA01C02F0A7FEE8B259
:100EF000211C00F0F9FD051C0120002D06D105483C
:100F000002F0CAFA024F0F213970281CF8BDC04602
:100F100065020020DD000500F8B5061C0D1C171C3D
:100F200000F01AFE002803D1154F0B253D7025E077
:100F30000322002D07D0301C00F0FCFD3A68037836
:100F40009A4204D206220E4E0020327016E0301C67
:100F500000F0E6FD041E0AD00278811C3A60281CCD
:100F600002F06CFE201C00F0B5FD012006E00548F3
:100F700002F092FA02490F200870201CF8BDC0460A
:100F8000650200200501050008B5072804D9044BB7
:100F900004221A70002001E000F0DAFD08BDC0460E
:100FA0006502002008B5072805D9044B042201205A
:100FB0001A70404201E000F0CFFD08BD650200203C
:100FC00008B500F0CDFD0623181A08BD10B5041EA3
:100FD000072C03D90B4B04241C7003E0FFF7D4FF4C
:100FE000022801DD00200CE0201CFFF7DBFF0228B7
:100FF000F8DCFFF7E5FF0623181A01218142924130
:10100000504210BD6502002008B50A4B19684A7E9F
:10101000002A04D0084A0C211170002009E007289A
:1010200003D9054B04201870F7E7C0B200F09CFD0F
:10103000012008BD040200206502002008B5072831
:1010400004D9054B04221A70002003E0C0B200F05E
:10105000A5FD012008BDC0466502002010B501288D
:101060000AD0002803D0022808D1002000E0012087
:1010700001F028F8012005E00220F9E7024B0522E3
:101080001A70002010BDC0466502002010B500F0A7
:1010900011FD01280AD00224002808D0A04201D165
:1010A000012404E0034802F0F7F900E00024201CCA
:1010B00010BDC0467001050038B5134A031C106806
:1010C0000C1C407E002804D0104D02202870002007
:1010D00018E001390F2903D90C4907220A7011E0E1
:1010E000002B03D1094C03232370F0E7084D191C92
:1010F00010C5221C281C02F0A1FD281C211C00F098
:10110000BDFD012038BDC04604020020650200205C
:101110006C0000200C4B10B51A680C68944201D387
:10112000102C04D9094C0720207000200AE0002868
:1011300003D1064903220A7004E00A60191D02F077
:101140007DFD012010BDC0466C000020650200201E
:10115000014B18687047C0466C00002008B5074B6B
:1011600019684A7E002A04D0054B0220187000201E
:1011700002E000F01DFD012008BDC0460402002071
:101180006502002008B500F023FD08BD08B5074B37
:1011900019684A7E002A04D0054B022018700020EE
:1011A00002E000F01BFD012008BDC0460402002043
:1011B0006502002008B500F01FFD08BD08B50A4B08
:1011C0001A68537E002B04D0084B02221A700020AC
:1011D00008E0072803D9054804210170F7E700F06B
:1011E00011FD012008BDC046040200206502002058
:1011F00010B50C1C072804D90422064B00201A70D5
:1012000006E003220029F8D000F028FD207001201C
:1012100010BDC0466502002008B5074B19684A7E1C
:10122000002A04D0054B02201870002002E000F0D4
:1012300065FD012008BDC0460402002065020020B3
:1012400008B500F061FD08BD08B50E4A031C106822
:10125000407E002804D00C480222027000200FE0DB
:10126000012B0AD0002B07D0022B01D1012004E072
:10127000054B0E21197003E0022000F0DDFD012076
:1012800008BDC046040200206502002008B501F038
:1012900023F80021012801D8014B195C081C08BD66
:1012A000303D000008B5134B19684A7E002A04D06F
:1012B000114A0221117000201BE006280FD802F00D
:1012C0006BFC12140406080A0C00FC200EE0F82047
:1012D0000CE0F4200AE0F02008E0EC2006E0064BE9
:1012E0000E201870E7E7042000E0002000F046FD23
:1012F000012008BD040200206502002008B500F0AE
:101300004BFDF02813D004D8042814D0EC2806D1C3
:101310000FE0F82807D0FC2803D0F42805D00120DE
:101320000AE0022008E0032006E0042004E0052093
:1013300002E0062000E0002008BD08B5064B196851
:101340004A7E002A04D0054B02201870002002E0DB
:1013500000F0E0FC012008BD04020020650200202E
:1013600008B500F0DDFC08BD08B5074B19684A7EDA
:10137000002A04D0054B02201870002002E000F083
:1013800097FC012008BDC046040200206502002031
:1013900008B500F093FC08BD08B5074B19684A7EF4
:1013A000002A04D0054B02201870002002E000F053
:1013B000CBFC012008BDC0460402002065020020CD
:1013C00008B500F0C9FC08BD08B5074B19684A7E8E
:1013D000002A04D0054B02201870002002E000F023
:1013E000A5FC012008BDC0460402002065020020C3
:1013F00008B500F0A3FC08BD08B5074B19684A7E84
:10140000002A04D0054B02201870002002E000F0F2
:10141000A9FC012008BDC04604020020650200208E
:1014200008B500F0A5FC08BD08B50B4B19684A7E4D
:10143000002A04D0094A0221117000200AE0002885
:1014400005D0012803D0054B0E201870F5E700F0F9
:101450005BFF012008BDC046040200206502002099
:1014600008B500F057FF01384342584108BD08B5A0
:101470000A4B19684A7E002A04D0094A02211170D9
:1014800000200AE0002805D0012803D0044B0E20DC
:101490001870F5E700F050FF012008BD040200209D
:1014A00065020020F8B51E4D00241E4E071C281CA6
:1014B000211C0C22083034706C60FEF7B3FE1A4811
:1014C00000F048FE2860A04203D1012030700020C7
:1014D00024E0164B181D1968FFF7EEFD051C381C9B
:1014E000FFF7BCFD0540042000F0EEFB201CFFF7D9
:1014F0009BFFEFB207400120FFF7D4FE0740022018
:10150000FFF7A2FE0740201CFFF7B1FF041C0120DB
:101510003C4000F0E7FE002CD7D00120F8BDC046CB
:101520000402002065020020A31500006C000020CA
:1015300008B500F007FF01384342584108BD024B8F
:101540000022DA607047C04604020020014BD868D0
:101550007047C04604020020044B002200B51A72F6
:10156000904202D018610120187200BD04020020D0
:10157000014B18787047C04665020020014B0022DD
:101580001A70704765020020014B58687047C046CA
:1015900004020020014B00225A6070470402002020
:1015A0007047F0B589B0040C031C060A844601900C
:1015B000101C039297B2020C0D1C002002910092A5
:1015C000E1B2624606AC069060600590D0B21B0E98
:1015D000F6B2052854D802F0DFFA03142943403D3F
:1015E0006A4649B2484223701388E080281C67800D
:1015F000A38000F06FFA301C06996268FFF706FCC2
:1016000041E022490B68587E002802D1204801F0B1
:1016100043FF281C6D4600F05DFA67802F88301C60
:10162000A78006996268FFF709FC2CE048B205AC78
:10163000424223706280002B07D0002D02D1154852
:1016400001F02AFF281C00F045FA301C0599FFF72D
:10165000F8FB18E0FFF7F8FB15E0FFF7A1FF12E039
:101660000A4DE9682B7A0131E960002B0BD02F6914
:10167000002F02D1FFF702FC05E0013F2F6102E0DD
:10168000054801F009FF09B0F0BDC0460402002082
:10169000B5030500C3030500E3030500024B03493E
:1016A0000F221A7048607047650200200402002073
:1016B00000B5064A01231178022903D05068421E62
:1016C000904100E0181C1840C0B200BD6802002024
:1016D00008B5FFF7EDFF044B044A002801D0D0689D
:1016E00000E09068186008BD1C020020A0020020E5
:1016F00008B5044B5A68002A01D0013A5A60FFF736
:10170000E7FF08BD6802002010B500231A1C041C66
:101710001C41012121400724E41AA1400A4301335E
:10172000D2B2082BF3D1101C10BD70B50024061CDA
:10173000251C301CE040C0B2FFF7E6FF1823191B40
:10174000884008340543202CF3D1281C70BD38B5DF
:101750000D1C01F071FE084C63699D4202D80748D8
:1017600001F09AFE60690122291A054802F058F931
:101770000021616138BDC046680200204D060900A5
:101780007934000007B5A12303210F4A8B40D150C3
:1017900001F094FD002815D002280AD9032811D1A0
:1017A000002300930193181C191C1A1C01F09EFCC5
:1017B00003E00020011C01F035FD042802D003489D
:1017C00001F06AFE07BDC04600F00140E8010900D3
:1017D00008B501F027FFA1230E4AD900505001F0AF
:1017E0006DFD012807D001F069FD022802D00A48EA
:1017F00001F052FE002001F0B9FA02F093F9074B14
:10180000A221CA0098500648064AC1684868985004
:1018100008BDC046001000401E06090000F001404F
:101820001C0200201405000008B502F0EDF80128A4
:101830000FD002F0CDF8074B187F002803D180218C
:101840000122CB055A60002001F0F6FD024A00207B
:10185000506008BDA00200206802002010B501F011
:101860006AFD00281AD00E4B00229A81DA8101F01D
:10187000C5FB0C4C0C49605001F0C0FBA6220123B3
:101880008340D100635001F0BFFB084C206001F0A1
:10189000C1FB074B6060E360FFF79AFF10BDC046D5
:1018A00068020020001000402C0500008402002087
:1018B0005919000008B502F0A7F8012822D101F05B
:1018C000D5FD002802D0104801F0E6FD1E210F488A
:1018D000002202F0A5F80E4B197F002902D002F079
:1018E0006BF80FE00B480C4B01220260596080211D
:1018F000C8050260C046C046C046C0465A68002AB5
:10190000FCD0ECE708BDC0462C0609007934000085
:10191000A002002014050040FC0000401FB5FFF7A6
:1019200083FF01F0D9F80A4A002301A805210170BC
:1019300043601C1C0381438143708370C3709370A8
:10194000537601F09DFA03480470FFF71BFF1FBD9B
:10195000680200209C020020F0B53E4B8022D0009F
:10196000195887B0012904D03B4C00261D59B542B7
:1019700006D13A4E2022776800263B789A4276417B
:10198000374C012561692E40281C002901D102F045
:1019900041F8284201D10120606101F08FFC01284B
:1019A00002D0304801F078FD2F4DEF683B7D002BD1
:1019B00002D02E4801F070FD01F08EF8002E47D0C5
:1019C0000120011C01F02EFC042836D802F0E4F8B6
:1019D00003321832320001F017FBE289071CA68996
:1019E000019201F00BFBE9686D46897D0497AF8891
:1019F00003AB00221A701E815F815870997014E049
:101A000001F002FB071CE089A689019001F0F6FABB
:101A1000EB686D469A7D0497AF8803AB00219A70FE
:101A200019701E815F8158700122DA70181C01F054
:101A300027FA02E00E4801F02FFD01F019FE0D4ECD
:101A4000206170696060FFF743FE002001F016FE20
:101A500007B0F0BD001000403405000084020020F3
:101A600068020020A80609001C020020A90609003F
:101A7000C8060900A0020020704708B5012282F3C1
:101A80001088074B597E002905D09878002802D18C
:101A90009A70FFF70FFF002282F3108808BDC0463E
:101AA00068020020024B0120597E48407047C04622
:101AB00068020020014B18787047C0466802002079
:101AC00008B5012383F3108801F094FC002181F311
:101AD000108808BD08B5012383F3108801F08EFC3F
:101AE000002080F3108808BD08B5012383F3108817
:101AF00001F0EAFB00280DD008488278002A04D1C2
:101B0000417E002901D0FFF7D5FE002383F3108822
:101B1000012001E080F3108808BDC0466802002063
:101B200008B5012383F3108801F0F6FB002181F34F
:101B3000108808BD08B501F0EAFB08BD08B501230F
:101B400083F3108801F0D3FB002181F3108808BDD6
:101B500008B501F0D8FB08BD08B501F0E7FB08BDEA
:101B600008B501F04FFC08BD10B50123041C83F338
:101B7000108808480278002A05D0417E002902D04A
:101B8000054801F089FC201C01F0B5FB002484F31A
:101B9000108810BD68020020FB02090008B501236F
:101BA00083F3108801F0BDFB002080F3108808BD8E
:101BB00008B5044B1862FFF7B8FD0349034A5050BB
:101BC00008BDC046A00200201C0500000010004017
:101BD000014B186A7047C046A002002008B5044BAC
:101BE0005862FFF7A2FDA421024ACB00D05008BDE5
:101BF000A002002000100040014B586A7047C04608
:101C0000A0020020F8B5031C081C072B1AD80F4AA5
:101C100003261E40D118F600FF24B4402831E743C4
:101C200008700B4C032B01D80A4D01E0A525ED00EF
:101C300063591F406751FFF767FD6759B04007437D
:101C4000675102E0044801F027FCF8BDA002002023
:101C500000100040240500003903090010B5041EDF
:101C6000072C02D9034801F017FC034B1819283040
:101C7000007810BD41030900A002002038B5051C02
:101C80000C1E02D1074801F007FC002D02D10648C6
:101C900001F002FC054B00209D605C6001F0D6FC69
:101CA00038BDC04648030900490309001C02002052
:101CB000014B58617047C046A0020020014B586993
:101CC0007047C046A0020020064B074AA32110B56A
:101CD0005877CB00D4580104044820400843D05022
:101CE00010BDC046A002002000100040FFFFF8FF1A
:101CF000014B587F7047C046A0020020014B18617D
:101D00007047C046A0020020014B18697047C046CA
:101D1000A0020020014B58607047C046A00200207E
:101D2000014B58687047C046A002002008B5024B1E
:101D3000D860FFF7CDFC08BDA0020020014BD86899
:101D40007047C046A002002008B5024B9860FFF71C
:101D5000BFFC08BDA0020020014B98687047C04638
:101D6000A0020020014B58837047C046A00200200B
:101D7000014B588B7047C046A0020020034B04491A
:101D8000044A3033187050507047C046A0020020FB
:101D90000C05000000100040014B303318787047EC
:101DA000A0020020184B10B531331870174A184B99
:101DB000FF249958A1439950032821D8995801F03C
:101DC000EBFE1D020A140124214399501149FF2002
:101DD0005850114906E00220014399500F490D4A1D
:101DE00099500F49A722D20008E0032421439950BB
:101DF0000C480849A7225850A2400021995002E0FF
:101E0000094801F049FB10BDA00200203405000084
:101E1000001000403C05000007010000FFFF00002B
:101E200021100100FFFFFF00C2030900014B313305
:101E300018787047A00200201F4B00B5323318708D
:101E4000012821D0002810D0022834D1A2211B4A19
:101E5000CB00D0501A491B481B4A08601B4B1C483A
:101E60001C491A6008601C4A20E0A223134AD900CA
:101E70005050134B1348154A186013491748154B17
:101E800011601860164A11E0A2230C4AD900505084
:101E90000B4B0C480C490D4A186011601148124A4E
:101EA0000C4B124918601160114A02E00E490A6099
:101EB000104A1148026000BDA0020020001000403E
:101EC00024170040005000784E00005428170040AE
:101ED00008800C602C1700408864720003800C603E
:101EE0002264720002800C603017004011646600AA
:101EF000DEC08F823E420F8234170040F8B5A12227
:101F0000334C344B344E354DD00000270321012291
:101F1000F750315067516251E05831490F2201406A
:101F2000E150E558062095430543E550E1582D4D15
:101F3000C02290020D400543E550A323DD00615906
:101F4000294A80230A406251605959040143615172
:101F50006059FF2290432023184360516159234860
:101F6000C02208406051224853000221C15001F0B4
:101F7000D5FD2049204A70507251204D03237351E2
:101F80001F4800F0E1FD1F4E1F4DF060687FFFF716
:101F90009BFE286AFFF70CFE686AFFF71FFEE81930
:101FA00028300178381C0137FFF72CFE082FF6D1B6
:101FB0002F1C30373978154AA1502C1C3134207829
:101FC0003235FFF7EFFE2878FFF736FFF8BDC04641
:101FD000001000401405000000F00140FC0F00005C
:101FE000FFFEFFFFFFFFF0FFFFFFFFFDFF00FFFF12
:101FF00000E100E01C0500000411004004050000A1
:10200000840200201C020020A00200200C05000019
:1020100070B5274E86B0337872789A4245D0002B3F
:1020200001D1FFF76BFF7078002801D1FFF7AAFB01
:102030002049214D00246C5000F04EFD1F4D2C60B6
:102040006C602C61AC60EC603378012B08D101F03E
:1020500035F9A04217D0201C211C01F0E3F812E052
:10206000022B10D100F038FD154A2C61147001F0DC
:1020700025F9032807D100940194201C211C221C5F
:10208000231C01F033F8FFF723FB70780024307035
:1020900003A804260670446004814481447084705F
:1020A000C47000F0EDFE012000E0002006B070BD1D
:1020B000680200201405000000F0014084020020A6
:1020C0009C02002008B5012383F3108808490A7890
:1020D000824208D04870487E002802D1FFF798FF5E
:1020E00001E0FFF7E7FB002383F3108808BDC0463B
:1020F0006802002038B5124B5A7E1C1C002A1DD1E4
:10210000FFF7FCFE0F488168051C002902D10E482C
:1021100001F0C2F96B68002B02D10C4801F0BCF948
:1021200001F098F9002802D0094801F0B5F9002023
:1021300001F082F901226276FFF7BCFB38BDC04690
:10214000680200201C0200205E0209005F020900F4
:1021500066020900F8B5071C012080F31088544D71
:10216000544B554E0024002203211C605C609C608F
:10217000DC601C611A7529702A766A76B460746016
:102180006870AC706C60AC60AC81EC812C616C618F
:1021900001F0D6FB381C00F059FE00F0F5FE201CC3
:1021A00001F042F9301C01F07BF9444FC22083005A
:1021B000F958434AC0260A40FA50B0003B584149FA
:1021C000C522194039509600BB59FF204021834356
:1021D0000B43BB510120FFF775FF3B4E3B4B3C4887
:1021E000311C3362706228310123301C0B7029309E
:1021F0000223311C03702A3103200870FF22311C96
:1022000032612B3104220A707277321C2C32052085
:102210001070321C2D320621301C11702E30072216
:102220000270301C2F300821321C01703032002027
:102230001070321C0120311C323210703131962264
:102240009A400B701E2171617260F360FFF740FAD3
:102250000F23B360FFF73CFA012074833076707669
:102260000021201C6924317701F0D0F834606E78A9
:102270000124A64202D0174801F00EF900262C7066
:10228000AE706E60AE60AE81EE812E616E612E76B4
:102290006E76FFF733FEC023802180225800CC00E9
:1022A00053033C503B5086F31088281CF8BDC046B1
:1022B00068020020840200201C02002000E100E0EF
:1022C000FFFF00FFFF00FFFFA002002004070A0D30
:1022D00005080B0E3C020900014B32331878704799
:1022E000A0020020054B10B5041CD868002802D1BC
:1022F000034801F0D1F803490C7510BD1C02002001
:10230000F603090084020020014B18767047C0468E
:10231000A0020020014B187E7047C046A00200209A
:10232000014B58767047C046A0020020014B587EF2
:102330007047C046A0020020014B18777047C04686
:10234000A0020020014B187F7047C046A002002069
:1023500008B501F05BF808BD08B50B4BD868417DA6
:10236000002906D0012000F05BFB084B9A8901325E
:102370009A810749074B084A002058505168136852
:10238000C91AFFF7E4F908BD1C020020680200200A
:102390001405000000F00140A0020020084B10B519
:1023A0001A781C1C012A02D0064801F075F806496B
:1023B000064A0220002320700B61CA6010BDC0468F
:1023C0009C02002092050900840200206D24000078
:1023D00010B500F081FB194819491A4C002301225D
:1023E000027023610869A623174AD900505000F0F3
:1023F00065FF00280AD100F075FD01280DD900F015
:102400000FFE6060002808D1104804E000F056FF7D
:10241000032802D00E4801F03FF8022000F0A6FC8D
:10242000002000F0FDFA00F049FF032802D009481F
:1024300001F032F8FFF7B2FF10BDC0469C02002049
:10244000A002002084020020001000407B0509004B
:10245000800509008805090008B5034B05221A709C
:10246000FFF7B6FF08BDC0469C020020F0B5484A01
:102470008023D800115887B0464C012904D0464D1E
:10248000002356599E4205D16768002339782020E1
:1024900088425B41414E03250021012735702160B0
:1024A0003B408B4255D08123D80015583C4B1158E6
:1024B0003C48D15002A912583B1C00910194381C91
:1024C000291C00F013FE032841D801F065FB1E0211
:1024D000204E0298002802D0334800F0DDFF281C6F
:1024E00000F024FF002802D1304800F0D5FF304929
:1024F00003A8CF680223B97D0027037047603A1C08
:1025000007814781457081701DE02A482BE0029ABF
:10251000002A02D1284800F0BFFF281C00F006FF67
:10252000002802D1254800F0B7FF214F03A8FB681F
:10253000029F997D0222002302704760038143813C
:10254000457081700122C27000F09AFC0DE01C48B9
:1025500009E000930193181C191C1A1C00F0C6FD19
:10256000042802D0174800F097FF2568002D06D1F7
:1025700000F0B2FA65752561FFF72AFF05E0124801
:102580000122627520610424347007B0F0BDC0469A
:102590000010004084020020340500009C0200204E
:1025A0002C0500000C040000B8050900B90509005D
:1025B0001C020020BD050900C0050900C105090075
:1025C000C8050900CF0509005924000070B50C4D5D
:1025D000A124E4002E5901F025F886420AD001F02A
:1025E00021F82851FFF7F4FE064900204968FFF75B
:1025F000AEF870BD044B18780028F3D0F4E7C0465D
:1026000000100040A00200209C020020F0B5864C83
:102610000125636989B0281C002B01D101F0FAF96A
:102620000126284000D0D3E02178B14202D100F049
:102630004BFA10E0022908D000F042FFFFF758F8EB
:10264000A678002E00D0A9E00EE0784A1378033B6C
:10265000DDB2AE4240410028EED0754E7548776835
:10266000012279086161CBE0FFF7D2FC704D071EB3
:1026700000D08EE020780190061E012E06D00028A2
:1026800063D0022865D1FFF7A1FF65E000F024FACE
:1026900000F014FE00281DD100F024FC012851D9BF
:1026A000FFF706F8071E0CD000F0FAFF002849D10A
:1026B000287E00280BD100F0DBFF2669B04241D113
:1026C00005E0206900F0C2FF381C00F0D7FFFFF7DB
:1026D000C5F837E0698B002920D0A2898A421DD332
:1026E000311C381C00F09EFD00F08EFC0290A28987
:1026F0000392E68900F082FC69460A79029905ABEB
:102700001A7006910C226946515A5870181C19818A
:102710005E819F70DF7000F0B3FB13E001F07AF987
:10272000002802D0444800F0B7FEA1234348DF0050
:10273000C65900F077FF864202D0E1890131E1817C
:10274000FFF746F80120296800E06968FEF7FFFFFF
:1027500002E03B4800F0A0FE6D7E012D23D1FEF784
:10276000A7FF00281FD12478012C07D0002C0DD002
:10277000022C18D0334800F08FFE14E000F09EFDCC
:10278000002810D100F034FC00280CD1FFF74CF8E1
:1027900009E06968301CFEF7DAFF04E0647E002C73
:1027A00001D0FFF7BBF800F09DFB01280CD905A86C
:1027B00000210323037041600181418141708170D8
:1027C000C17000F05DFB2DE01F4800F065FE29E0C0
:1027D000FEF78EFFA778002F1DD12178022912D194
:1027E000124B1D78033D012D04D900F069FEFFF75F
:1027F000EDFE17E00E4F321C786841080D4861610C
:1028000001F00EF90EE000F05BFE094A381C516839
:10281000FEF79DFF06E000F053FE607E002801D029
:10282000FFF77CF809B0F0BD680200209C02002090
:10283000A0020020793400000A05090000100040C1
:1028400058040900720409008C04090007B50190BE
:10285000C046C046C046C046C046C046C046C04648
:10286000C046C046C046C046C046C046019B013B6C
:102870000193002BECD107BD70B58022164B91005F
:1028800000245C501549C2250E78AD00144A032E71
:1028900007D109267442C1265C510825B4001D5198
:1028A0000AE0012676425E51C0230E4D02265B00EF
:1028B000EE50146103244C70002353605361936005
:1028C0004B600B75984205D0074801680A69002AD9
:1028D00000D0904770BDC04600100040D4020020D8
:1028E000FC10004000E100E02C020020F8B53F4B56
:1028F0001A69012A53D19D693D4C80229600013509
:10290000032104209D611870C025A15139496A0036
:1029100002278F50384F00263E61C1227E607E61C3
:10292000BE60364E08259100655035682A7D3D1CF5
:10293000002A17D0A927F9006258314F9A75A023B1
:10294000D9007A58024202D12E4800F0A5FD00209D
:102950000123A12228620421A361D300F950A927F1
:10296000F90060506868002802D0274800F094FD04
:102970002D69002D02D0254800F08EFD244A5368B1
:1029800099072DD43768F968002900D08847366840
:10299000707D002828D035681E4AA55024E0022A00
:1029A0001AD1154900250D6111484D6180244D60F3
:1029B00001278D60C221A6007A428C0085511D70CE
:1029C0000251032058705D601D750C4B1E683769FD
:1029D000AF4209D0B84707E00F4800F05DFD03E0C3
:1029E0000E4800F059FDCDE7F8BDC046D4020020E6
:1029F0000010004000E100E0FC1000402C0200202C
:102A000000F00140AD020A00B6020A00B7020A0057
:102A1000FCE100E004050000E7020A00B8020A0039
:102A200070B51E4D061C6B7D6C78002B02D11C48C6
:102A300000F032FD287D002802D01A4800F02CFD5D
:102A4000012200212A756975022C0CD81648230131
:102A5000C318002E01D11E683260621E012A05D8FB
:102A6000997A297002E0114800F016FD104D28688F
:102A7000037D002B11D0022C0FD10E4C0E4E251CC5
:102A80003259530702D40D4800F006FD0C4948594D
:102A9000002802D10B4800F0FFFC70BDD4020020DA
:102AA00021010A0022010A00343D00003A010A0017
:102AB0002C0200200405000000F0014040010A0043
:102AC0000010004041010A00024B9868013843425F
:102AD00058417047FC100040F8B5164B164C0220C8
:102AE0000121C027C222D8674D4282407B00134E8D
:102AF0008021134FA55081400025F05001226550E0
:102B00007D61104D2261A2612C78944201D1062092
:102B100003E0023C012C00D9101C0024FFF796FEB4
:102B20007C61201C2C70FFF7A7FE02206C753060C2
:102B3000F8BDC04604E100E00010004000E100E004
:102B4000FC100040D402002038B50E4B0E4C18602B
:102B50000E490F4B0F4A0225201DC56799500E489C
:102B6000A421CA009850FFF7B7FF0C4800230321A7
:102B7000037041704360036103754375837525607D
:102B800038BDC0462C02002000E100E014100040D7
:102B900000F001402405000004110040D402002090
:102BA00070B55C4C2369607D013365782361002832
:102BB00002D0594800F070FC2178032948D1574EC3
:102BC0003269002A44D0012D35D12269032A02D06E
:102BD000534800F061FCA06902210130514A802570
:102BE000A06100238D400120217053514542C22035
:102BF00088401550C02568004B4D29504B49336122
:102C0000096873607361B36003266670636023753F
:102C1000087D98420DD0A925E80016580125A67513
:102C20003E4C042623629561A124414DE4002E51BF
:102C30001350CA6865E0022D08D12369012B02D028
:102C40003C4800F029FCFFF751FE61E03A485DE0A6
:102C5000032D5AD0012D3CD12169012918D12F48CB
:102C60000021304B0126C2224160816070429100F8
:102C7000C1265850B0001D502C4D304E2A68117D91
:102C8000002902D02A4D0420A851E4689C513FE05D
:102C900002293DD1234E214A80230025980002219C
:102CA000C22315615561556035504A429800C121D3
:102CB00032508B000822F25003262670656025757D
:102CC0001A4C2568261C2869002800D080473068E7
:102CD00016E0022DB7D0657819482B01C1180E7B7C
:102CE0000025AE4203D00D4A15696A1E95418B7AC4
:102CF00001202370FFF7C0FD002D09D00B4C206888
:102D00008268002A04D0904702E00E4800F0C4FB1D
:102D100070BDC046D402002090010A00FC100040A3
:102D20009F010A000010004000E100E02C0200209A
:102D300000F00140A4010A00A9010A0004050000F6
:102D4000343D0000D6010A0008B5022804D8054B1E
:102D500018784342584103E0034800F09DFB0020EF
:102D600008BDC046D4020020F9020A00F8B52B4C79
:102D70000301061C2A4F207DFF18002802D0294895
:102D800000F08AFB301CFFF7DFFF002802D1264845
:102D900000F082FB0121C222244D00234842910011
:102DA0006375C02268502249022052008850214891
:102DB00066700268116852682361A3613B68A16074
:102DC000E2606360022E18D8387A80239B00E850B6
:102DD000F87A194B002805D1E950EA58002A08D1A1
:102DE000164804E0EA50E958002902D1144800F0DE
:102DF00053FB7F7AC1208300EF500E4D29680A7D76
:102E0000002A07D0022E05D10B480E4B00260427BE
:102E1000A6751F5001256575F8BDC046D402002077
:102E2000343D0000DB000A00DD000A000010004015
:102E300000E100E02C0200200405000000010A006F
:102E400005010A0000F001407047C04610B5041E9D
:102E500002D1084800F020FB074B00221C60191D1E
:102E6000DA670833CA678020DA67044B44031C60C2
:102E700010BDC04629000B00F802002000E100E070
:102E800070B5144C051C2368002B02D1124800F0C9
:102E900003FB201C0830C16F092902D90F4800F03C
:102EA000FBFAE66F0C225643A319043343CD43C308
:102EB000251C0835E86F0130E867E16F0131E167F3
:102EC000E66F092E01D90022E2678024044B6503D6
:102ED0005D6070BDF802002034000B0035000B006F
:102EE000FCE100E0034B0A200833D96F421AD0B24C
:102EF0007047C046F8020020F0B587B0012383F385
:102F00001088134C124D0834E06F00281BD02A1D86
:102F1000D16F0C26714303AB69180431181CE0C94A
:102F2000E0C0E76F0026013FE767D46F0134D46744
:102F3000D56F092D00D9D66786F31088044A176823
:102F400007CBB847DAE780F3108807B0F0BDC0467A
:102F5000F802002038B50A4C051CE36F002B02D1A3
:102F6000084800F099FA291C0831E06F00F03CFC99
:102F70000021884201D0E1670121081C38BDC0460C
:102F8000800300206F020C0010B500F0B7FB002199
:102F9000124A8800002384188818A361A363041CC4
:102FA00080348830237003700D480C180131237071
:102FB0000829EDD1111C101C141C9031913058348B
:102FC000137053609360D360136153610B7003708F
:102FD0002370D36792320123137010BD8003002049
:102FE00014040020014B185C7047C04614040020F4
:102FF000014B90331878704780030020014B5868CC
:103000007047C04680030020014B98687047C04657
:1030100080030020014BD8687047C0468003002021
:1030200010B5104C2378002B02D00F4800F034FA72
:10303000E06F002802D100F08BFBE067E06F002812
:103040000FD0012143784A4206210B43437002709E
:103050000023C218FF2101339170202BF9D10323E3
:10306000237010BD800300203B010C0038B5124CCA
:103070002378002B1ED1201C90300178002919D113
:103080000825606900F028FC002805D0231C606931
:10309000903301221A70206161690131082900D141
:1030A0000021231C616190331A78002A02D1013D6E
:1030B000002DE6D138BDC0468003002038B5094D4B
:1030C000041C2B1C90331878002804D02969A142D5
:1030D00001D1FFF7CBFF2A19034B00258032157071
:1030E0001D5538BD8003002014040020F0B5464D66
:1030F00085B00393EB6F061C0C1C171C002B02D130
:10310000424800F0C9F92878032802D0404800F06E
:10311000C3F9E96F01234A781A4202D192352D781A
:103120006B400425002E61D050070126810F1E4000
:10313000251C231C0A0608330E353F023249A8001D
:103140003F0A02930B5817430B980A9A0025156003
:1031500005609F4233D0201CFFF7FCFE0190AE4279
:1031600000D0051C01232E1C1E40002828D00299E7
:10317000254A063188008750039F1D1C002F20D050
:10318000244F3B5D002B1CD0201C00F0A5FB002829
:1031900002D1214800F080F9201C00F05BFB051EE5
:1031A00002D0201CFFF78AFF0A990D60002D02D182
:1031B0001A4800F071F900203855022501E0019508
:1031C0000325002E0DD0201C00F06CFB0B9E306000
:1031D000002802D1124B336005E00E4F01223A5510
:1031E00001E00B9C26600199002905D1064CE06F97
:1031F00000F0CCFA0020E067034A00261670FFF7C3
:1032000035FF281C05B0F0BD800300205B010C00D9
:103210005C010C001404002091010C0096010C00CC
:10322000D8030020F8B51F4C071C23780E1C013B67
:10323000012B02D91C4800F02FF90425002F19D0CA
:103240002078012802D0194800F026F9E268002A07
:1032500002D1174800F020F9E16800250F78AF424D
:1032600008D06068FFF776FE0225002802D11148D9
:1032700000F012F9002E0ED06768381C00F0EAFA50
:10328000061E02D0381CFFF719FFA3689E4202D029
:10329000094800F001F900202070FFF7E7FE281C24
:1032A000F8BDC04680030020FC000C0002010C00A9
:1032B00003010C000E010C001E010C00014B1878DC
:1032C0007047C0468003002038B5041C0D1C00F078
:1032D00013FB002801D1002008E0281C211C00F06D
:1032E00083FA0028F7D0FFF7C1FE012038BD08B5EA
:1032F00000F0D8FA08BD10B5041CFFF7DFFE201C53
:1033000000F000FB10BD08B500F0E6FA08BD08B5F6
:10331000083000F0C7FA08BD08B5083000F09AFA86
:1033200008BD08B5083000F0EDFA08BD08B5083052
:1033300000F0D2FA08BD10B52A4C2378002B02D039
:10334000294800F0A9F8201C90300178002927D0E6
:103350002069606000F0A6FAA060002802D123482E
:1033600000F09AF8A26801235078034004D1211C90
:1033700092310A78002A10D16068FFF7D7FF02283F
:103380000ED8E36F002B02D100F0E2F9E067E16FA5
:10339000E160002904D0012001E0E36002202070F8
:1033A0002278002082421BD0A368834202D11048B9
:1033B00000F072F820696060063081006318DA78E6
:1033C00003210132D0B2D870A36808405A78410076
:1033D000062082430A435A70903400232370012050
:1033E00010BDC04680030020C3000C00C9000C00C3
:1033F000E7000C0008B500F0ABF908BD08B500F017
:10340000C5F908BD08B500F077FA08BD014B923345
:103410001870704780030020014B92331878704772
:10342000800300207047C046024B98705870187097
:103430007047C0461C04002010B5041E012C02D9A0
:10344000024800F029F8024B5C7010BD2A000D0004
:103450001C040020014B18787047C0461C04002053
:10346000014B98787047C0461C040020014B5878E7
:103470007047C0461C04002008B5054B1A785878E0
:103480009A701870034B8100CA58904708BDC04617
:103490001C0400208000002008B5FEF7FFF808BDDE
:1034A00010B5041E02D10448FFF7F6FF034B0022BB
:1034B0001C605A609A6010BD2A0001003002002092
:1034C000094B00B518689A68016801329A608A420F
:1034D00008D359684068002201319A6059608142DE
:1034E00000D35A6000BDC04630020020F8B5002865
:1034F0002AD0164CA36801280ED1276801333A68F8
:10350000A360934220D36068796800250130A560EC
:103510006060884218D316E02668C7183568A7602F
:10352000381C291C00F042FB62683B1C801860605C
:10353000AB4201D35B1BFBE771686568A3608D42FA
:1035400001D36D1AFBE76560F8BDC046300200206C
:10355000024B1A6899681068401A704730020020C0
:1035600070B50D4D041C2B685868844202D30B487B
:10357000FFF792FF6E68B4420CD002D829684A68FF
:10358000A418FFF7E5FF2D68F3432E68191971435E
:10359000081800E0002070BD300200206800010023
:1035A00070B5041C0D1C884202D30B48FFF774FF52
:1035B0000A4E33681868854202D90948FFF76CFF44
:1035C000B168601AA14206D30020A94203D3326831
:1035D00015686E1A301970BD7D00010030020020A0
:1035E0007E00010038B5041C101C0D1CFFF7B8FF4D
:1035F000002801D0001911E0201C291CFFF7D0FF82
:10360000041CFFF7A5FF031C201E984206D30449A3
:103610000D686A682C68013A5443001938BDC046E9
:1036200030020020074B10B51A68596850681C1CFE
:10363000814202D30448FFF72FFF236861689A682C
:10364000505C10BD30020020B200010038B5064BBE
:10365000041C1A681D1C5068844202D30348FFF7FB
:103660001BFF6C6038BDC04630020020B90001006D
:10367000014B58687047C0463002002038B5064BF1
:10368000041C1A681D1C1068844202D30348FFF70B
:1036900003FFAC6038BDC04630020020C500010009
:1036A000014B98687047C0463002002010B50F4BA0
:1036B0001A68002393420BD20D499C006458A04223
:1036C00003D10C48FFF7E8FE0CE00133DBB2F1E771
:1036D00000242222624308495318984204D001343E
:1036E000062CF6D1002000E0012010BD20040020AF
:1036F00024040020F60003002C05002010B5002251
:103700000F495000801800230C1801326370A37019
:103710004354102AF4D122225A430A490A48541821
:10372000211C9A0084502231DE22227001348C4206
:10373000FAD10133062BEED1044C236010BDC046F4
:103740003C0400202C05002024040020200400203C
:1037500038B50A4B1C68002C0ED0621E0849900038
:103760004458084D1A604550201CFFF79FFF002861
:1037700002D10548FFF790FE201C38BD2004002030
:1037800024040020ADDEADDE7D00030070B5104CDA
:10379000051C2368052B02D90E48FFF77DFE281C67
:1037A000FFF784FF002802D10B48FFF775FE216860
:1037B0000A488A0011580A4B061C994202D009484F
:1037C000FFF76AFE206882000130B550206070BDAE
:1037D000200400208500030086000300240400204C
:1037E000ADDEADDE88000300F8B5051C0C1E0F2C05
:1037F00002D91448FFF750FE281CFFF757FF002896
:1038000002D11148FFF748FE104966003019435CA9
:103810000022022B13D80B185F78C0190C4F8000C0
:10382000C5515D780135E8B258705F78022F00D934
:103830005A7032198C5C0134E6B28E540122101C8D
:10384000F8BDC0468F000300900003003C04002038
:103850006C04002038B5041E0F2C02D90E48FFF767
:103860001BFE0E4A65002919885C002813D05318E6
:10387000987809180A488900085899780131C9B21E
:1038800099709978022901D9002199702C19155D38
:10389000013DEBB2135538BDA60003003C040020E7
:1038A0006C04002010B5041E0F2C02D90748FFF746
:1038B000F3FD074B62001119C85C002805D05818A9
:1038C00084780B1903499A00505810BDB7000300C3
:1038D0003C0400206C04002010B5041E0F2C02D9FB
:1038E0000348FFF7D9FD630002491819405C10BD79
:1038F000C80003003C040020014B18687047C04614
:103900002004002038B5051E0F2D0CD90948FFF7FB
:10391000C3FD08E0084B9C4202D10848FFF7BCFDFC
:10392000201CFFF733FF281CFFF794FF041EF1D182
:1039300038BDC046D7000300ADDEADDEDB000300BE
:10394000164BA12110B50122CC0000205A60DA608C
:1039500018515A64124A1C1C9958814202D01148CD
:10396000FFF79AFD0123C222584291000E4B60508E
:103970000022A2215A640420CB00E0500B490C4CD9
:10398000012022602271627108700A4B8022C021DE
:10399000D40081405C501C6010BDC04600A00040B7
:1039A0004405000035000400FCA00040F80500209C
:1039B0003C02002000E100E0034B0449012200200A
:1039C0001A6008707047C04600A00040F80500204B
:1039D000094A30B501235360084CD3608025084A5A
:1039E000C0200021ED0098401160117125505171E7
:1039F000044A137030BDC04600A0004000E100E062
:103A00003C020020F8050020014B18787047C046A2
:103A1000F8050020014B18797047C0463C02002091
:103A2000F7B5334F0092334C8022C2237E79019147
:103A3000051C990050026050002E02D02E48FFF75E
:103A40002BFD002D02D12D48FFF726FD3A68002AF4
:103A500002D02B48FFF720FD3D60009D294E012D2F
:103A60000DD0002D03D0022D0DD1A92208E0012098
:103A7000254B00996064E5582064716407E0A82232
:103A8000D500655903E02148FFF706FD0025012216
:103A90007A71019FA821E81987B20023C8007364D6
:103AA0002750275800976264174AA758716C1E1C4C
:103AB000994202D01648FFF7EFFC009BAB4205D3BA
:103AC000AF4201D39F420CD3124808E0301CAF42F2
:103AD0007041009DAF427641B04202D00E48FFF7E0
:103AE000DBFC8022C12157028E00A751F7BDC046E2
:103AF0003C02002000A00040730004007500040098
:103B000076000400FCA00040440500008900040089
:103B10009B000400B0000400C90004000048704786
:103B200048A000400048704740A1004070B5802286
:103B3000134C144DC223500299000026685066644D
:103B4000114C2268B24202D11048FFF7A5FC104B7D
:103B5000012166712068A82226606964EE58D300AE
:103B6000EA580C4D1432AE4203D8C0231D02AA42BB
:103B700002D80021964249412171804770BDC0465C
:103B8000FCA0004000A000403C020020EC0004002B
:103B900044050000FF3F000002B471464908490097
:103BA000095C49008E4402BC7047C046002934D0ED
:103BB0000123002210B488422CD301242407A142FF
:103BC00004D2814202D209011B01F8E7E400A142BC
:103BD00004D2814202D249005B00F8E7884201D357
:103BE000401A1A434C08A04202D3001B5C0822432F
:103BF0008C08A04202D3001B9C082243CC08A042A0
:103C000002D3001BDC082243002803D01B0901D08B
:103C10000909E3E7100010BC704701B5002000F06F
:103C20000BF802BD0029F8D003B5FFF7C1FF0EBCA9
:103C30004243891A1847C0467047C046F0B5C64689
:103C400000B50F2A43D90B00032603431E400C0086
:103C50000300002E40D11500103D2D09AC462D016A
:103C6000A846804400E03B00676825685F60E7681D
:103C70001D60DF601F00A56810379D60103443454C
:103C8000F1D165460F230C2401352D01491913404C
:103C90004519144223D08C59AC5104369C1B032C7B
:103CA000F9D80324043B9B0801339B002240ED1804
:103CB000C918561E002A07D0002300E02300CA5C62
:103CC0005C1CEA549E42F9D180BCB846F0BD0500A8
:103CD000561E002AF0D1F7E7561E0500ECE71A0041
:103CE000F6E7C046F8B5C046F8BC08BC9E4670472B
:103CF000F8B5C046F8BC08BC9E46704704000020DA
:103D00001F0003020000000000000000030000008C
:103D1000040000000500000006000000070000008D
:103D2000090000000A00000000100140110004001A
:103D300001020000001000401011004003100000BC
:103D40000100000000100040000000000B02040011
:103D500000000000041000400000000007080301FC
:083D600000000000000000005B
:083D6800A0C3FF7F0100000071
:103D7000040000200000000000000000000000001F
:103D80000000000000000000000000000000000033
:103D90000000000000000000000000000000000023
:103DA0000000000000000000000000000000000013
:103DB0000000000000000000000000000000000003
:103DC00000000000000000000000000000000000F3
:103DD0000000000044020020042A4D0005000000FD
:103DE00004192A3F4D000000000000000000000000
:103DF0000D26000059230000E9000000C10000006A
:0400000300000B45A9
:00000001FF
